{
	"contracts/Storage.sol": {
		"Storage": {
			"abi": [
				{
					"inputs": [],
					"stateMutability": "nonpayable",
					"type": "constructor"
				},
				{
					"inputs": [],
					"name": "get",
					"outputs": [
						{
							"internalType": "uint8",
							"name": "",
							"type": "uint8"
						}
					],
					"stateMutability": "view",
					"type": "function"
				},
				{
					"inputs": [],
					"name": "increment",
					"outputs": [],
					"stateMutability": "nonpayable",
					"type": "function"
				},
				{
					"inputs": [
						{
							"internalType": "uint8",
							"name": "_number",
							"type": "uint8"
						}
					],
					"name": "set",
					"outputs": [],
					"stateMutability": "nonpayable",
					"type": "function"
				}
			],
			"devdoc": {
				"kind": "dev",
				"methods": {},
				"version": 1
			},
			"evm": {
				"assembly": "    /* \"contracts/Storage.sol\":61:474  contract Storage {... */\n  mstore(0x40, 0x80)\n    /* \"contracts/Storage.sol\":106:146  constructor(){... */\n  callvalue\n  dup1\n  iszero\n  tag_1\n  jumpi\n  0x00\n  dup1\n  revert\ntag_1:\n  pop\n    /* \"contracts/Storage.sol\":137:138  0 */\n  0x00\n    /* \"contracts/Storage.sol\":130:136  number */\n  dup1\n  0x00\n    /* \"contracts/Storage.sol\":130:138  number=0 */\n  0x0100\n  exp\n  dup2\n  sload\n  dup2\n  0xff\n  mul\n  not\n  and\n  swap1\n  dup4\n  0xff\n  and\n  mul\n  or\n  swap1\n  sstore\n  pop\n    /* \"contracts/Storage.sol\":61:474  contract Storage {... */\n  dataSize(sub_0)\n  dup1\n  dataOffset(sub_0)\n  0x00\n  codecopy\n  0x00\n  return\nstop\n\nsub_0: assembly {\n        /* \"contracts/Storage.sol\":61:474  contract Storage {... */\n      mstore(0x40, 0x80)\n      callvalue\n      dup1\n      iszero\n      tag_1\n      jumpi\n      0x00\n      dup1\n      revert\n    tag_1:\n      pop\n      jumpi(tag_2, lt(calldatasize, 0x04))\n      shr(0xe0, calldataload(0x00))\n      dup1\n      0x24b8ba5f\n      eq\n      tag_3\n      jumpi\n      dup1\n      0x6d4ce63c\n      eq\n      tag_4\n      jumpi\n      dup1\n      0xd09de08a\n      eq\n      tag_5\n      jumpi\n    tag_2:\n      0x00\n      dup1\n      revert\n        /* \"contracts/Storage.sol\":268:388  function set(uint8 _number) public{... */\n    tag_3:\n      tag_6\n      0x04\n      dup1\n      calldatasize\n      sub\n      dup2\n      add\n      swap1\n      tag_7\n      swap2\n      swap1\n      tag_8\n      jump\t// in\n    tag_7:\n      tag_9\n      jump\t// in\n    tag_6:\n      stop\n        /* \"contracts/Storage.sol\":396:471  function get() public view returns (uint8) {... */\n    tag_4:\n      tag_10\n      tag_11\n      jump\t// in\n    tag_10:\n      mload(0x40)\n      tag_12\n      swap2\n      swap1\n      tag_13\n      jump\t// in\n    tag_12:\n      mload(0x40)\n      dup1\n      swap2\n      sub\n      swap1\n      return\n        /* \"contracts/Storage.sol\":154:260  function increment() public{... */\n    tag_5:\n      tag_14\n      tag_15\n      jump\t// in\n    tag_14:\n      stop\n        /* \"contracts/Storage.sol\":268:388  function set(uint8 _number) public{... */\n    tag_9:\n        /* \"contracts/Storage.sol\":332:335  255 */\n      0xff\n        /* \"contracts/Storage.sol\":321:328  _number */\n      dup2\n        /* \"contracts/Storage.sol\":321:335  _number <= 255 */\n      0xff\n      and\n      gt\n      iszero\n        /* \"contracts/Storage.sol\":313:353  require(_number <= 255, \"uint overflow\") */\n      tag_17\n      jumpi\n      mload(0x40)\n      0x08c379a000000000000000000000000000000000000000000000000000000000\n      dup2\n      mstore\n      0x04\n      add\n      tag_18\n      swap1\n      tag_19\n      jump\t// in\n    tag_18:\n      mload(0x40)\n      dup1\n      swap2\n      sub\n      swap1\n      revert\n    tag_17:\n        /* \"contracts/Storage.sol\":373:380  _number */\n      dup1\n        /* \"contracts/Storage.sol\":364:370  number */\n      0x00\n      dup1\n        /* \"contracts/Storage.sol\":364:380  number = _number */\n      0x0100\n      exp\n      dup2\n      sload\n      dup2\n      0xff\n      mul\n      not\n      and\n      swap1\n      dup4\n      0xff\n      and\n      mul\n      or\n      swap1\n      sstore\n      pop\n        /* \"contracts/Storage.sol\":268:388  function set(uint8 _number) public{... */\n      pop\n      jump\t// out\n        /* \"contracts/Storage.sol\":396:471  function get() public view returns (uint8) {... */\n    tag_11:\n        /* \"contracts/Storage.sol\":432:437  uint8 */\n      0x00\n        /* \"contracts/Storage.sol\":457:463  number */\n      dup1\n      0x00\n      swap1\n      sload\n      swap1\n      0x0100\n      exp\n      swap1\n      div\n      0xff\n      and\n        /* \"contracts/Storage.sol\":450:463  return number */\n      swap1\n      pop\n        /* \"contracts/Storage.sol\":396:471  function get() public view returns (uint8) {... */\n      swap1\n      jump\t// out\n        /* \"contracts/Storage.sol\":154:260  function increment() public{... */\n    tag_15:\n        /* \"contracts/Storage.sol\":209:212  255 */\n      0xff\n        /* \"contracts/Storage.sol\":200:206  number */\n      0x00\n      dup1\n      sload\n      swap1\n      0x0100\n      exp\n      swap1\n      div\n      0xff\n      and\n        /* \"contracts/Storage.sol\":200:212  number < 255 */\n      0xff\n      and\n      lt\n        /* \"contracts/Storage.sol\":192:230  require(number < 255, \"uint overflow\") */\n      tag_22\n      jumpi\n      mload(0x40)\n      0x08c379a000000000000000000000000000000000000000000000000000000000\n      dup2\n      mstore\n      0x04\n      add\n      tag_23\n      swap1\n      tag_19\n      jump\t// in\n    tag_23:\n      mload(0x40)\n      dup1\n      swap2\n      sub\n      swap1\n      revert\n    tag_22:\n        /* \"contracts/Storage.sol\":251:252  1 */\n      0x01\n        /* \"contracts/Storage.sol\":241:247  number */\n      0x00\n      dup1\n        /* \"contracts/Storage.sol\":241:252  number += 1 */\n      dup3\n      dup3\n      dup3\n      swap1\n      sload\n      swap1\n      0x0100\n      exp\n      swap1\n      div\n      0xff\n      and\n      tag_24\n      swap2\n      swap1\n      tag_25\n      jump\t// in\n    tag_24:\n      swap3\n      pop\n      0x0100\n      exp\n      dup2\n      sload\n      dup2\n      0xff\n      mul\n      not\n      and\n      swap1\n      dup4\n      0xff\n      and\n      mul\n      or\n      swap1\n      sstore\n      pop\n        /* \"contracts/Storage.sol\":154:260  function increment() public{... */\n      jump\t// out\n        /* \"#utility.yul\":88:205   */\n    tag_27:\n        /* \"#utility.yul\":197:198   */\n      0x00\n        /* \"#utility.yul\":194:195   */\n      dup1\n        /* \"#utility.yul\":187:199   */\n      revert\n        /* \"#utility.yul\":334:420   */\n    tag_29:\n        /* \"#utility.yul\":369:376   */\n      0x00\n        /* \"#utility.yul\":409:413   */\n      0xff\n        /* \"#utility.yul\":402:407   */\n      dup3\n        /* \"#utility.yul\":398:414   */\n      and\n        /* \"#utility.yul\":387:414   */\n      swap1\n      pop\n        /* \"#utility.yul\":334:420   */\n      swap2\n      swap1\n      pop\n      jump\t// out\n        /* \"#utility.yul\":426:544   */\n    tag_30:\n        /* \"#utility.yul\":497:519   */\n      tag_43\n        /* \"#utility.yul\":513:518   */\n      dup2\n        /* \"#utility.yul\":497:519   */\n      tag_29\n      jump\t// in\n    tag_43:\n        /* \"#utility.yul\":490:495   */\n      dup2\n        /* \"#utility.yul\":487:520   */\n      eq\n        /* \"#utility.yul\":477:538   */\n      tag_44\n      jumpi\n        /* \"#utility.yul\":534:535   */\n      0x00\n        /* \"#utility.yul\":531:532   */\n      dup1\n        /* \"#utility.yul\":524:536   */\n      revert\n        /* \"#utility.yul\":477:538   */\n    tag_44:\n        /* \"#utility.yul\":426:544   */\n      pop\n      jump\t// out\n        /* \"#utility.yul\":550:685   */\n    tag_31:\n        /* \"#utility.yul\":594:599   */\n      0x00\n        /* \"#utility.yul\":632:638   */\n      dup2\n        /* \"#utility.yul\":619:639   */\n      calldataload\n        /* \"#utility.yul\":610:639   */\n      swap1\n      pop\n        /* \"#utility.yul\":648:679   */\n      tag_46\n        /* \"#utility.yul\":673:678   */\n      dup2\n        /* \"#utility.yul\":648:679   */\n      tag_30\n      jump\t// in\n    tag_46:\n        /* \"#utility.yul\":550:685   */\n      swap3\n      swap2\n      pop\n      pop\n      jump\t// out\n        /* \"#utility.yul\":691:1016   */\n    tag_8:\n        /* \"#utility.yul\":748:754   */\n      0x00\n        /* \"#utility.yul\":797:799   */\n      0x20\n        /* \"#utility.yul\":785:794   */\n      dup3\n        /* \"#utility.yul\":776:783   */\n      dup5\n        /* \"#utility.yul\":772:795   */\n      sub\n        /* \"#utility.yul\":768:800   */\n      slt\n        /* \"#utility.yul\":765:884   */\n      iszero\n      tag_48\n      jumpi\n        /* \"#utility.yul\":803:882   */\n      tag_49\n      tag_27\n      jump\t// in\n    tag_49:\n        /* \"#utility.yul\":765:884   */\n    tag_48:\n        /* \"#utility.yul\":923:924   */\n      0x00\n        /* \"#utility.yul\":948:999   */\n      tag_50\n        /* \"#utility.yul\":991:998   */\n      dup5\n        /* \"#utility.yul\":982:988   */\n      dup3\n        /* \"#utility.yul\":971:980   */\n      dup6\n        /* \"#utility.yul\":967:989   */\n      add\n        /* \"#utility.yul\":948:999   */\n      tag_31\n      jump\t// in\n    tag_50:\n        /* \"#utility.yul\":938:999   */\n      swap2\n      pop\n        /* \"#utility.yul\":894:1009   */\n      pop\n        /* \"#utility.yul\":691:1016   */\n      swap3\n      swap2\n      pop\n      pop\n      jump\t// out\n        /* \"#utility.yul\":1022:1134   */\n    tag_32:\n        /* \"#utility.yul\":1105:1127   */\n      tag_52\n        /* \"#utility.yul\":1121:1126   */\n      dup2\n        /* \"#utility.yul\":1105:1127   */\n      tag_29\n      jump\t// in\n    tag_52:\n        /* \"#utility.yul\":1100:1103   */\n      dup3\n        /* \"#utility.yul\":1093:1128   */\n      mstore\n        /* \"#utility.yul\":1022:1134   */\n      pop\n      pop\n      jump\t// out\n        /* \"#utility.yul\":1140:1354   */\n    tag_13:\n        /* \"#utility.yul\":1229:1233   */\n      0x00\n        /* \"#utility.yul\":1267:1269   */\n      0x20\n        /* \"#utility.yul\":1256:1265   */\n      dup3\n        /* \"#utility.yul\":1252:1270   */\n      add\n        /* \"#utility.yul\":1244:1270   */\n      swap1\n      pop\n        /* \"#utility.yul\":1280:1347   */\n      tag_54\n        /* \"#utility.yul\":1344:1345   */\n      0x00\n        /* \"#utility.yul\":1333:1342   */\n      dup4\n        /* \"#utility.yul\":1329:1346   */\n      add\n        /* \"#utility.yul\":1320:1326   */\n      dup5\n        /* \"#utility.yul\":1280:1347   */\n      tag_32\n      jump\t// in\n    tag_54:\n        /* \"#utility.yul\":1140:1354   */\n      swap3\n      swap2\n      pop\n      pop\n      jump\t// out\n        /* \"#utility.yul\":1360:1529   */\n    tag_33:\n        /* \"#utility.yul\":1444:1455   */\n      0x00\n        /* \"#utility.yul\":1478:1484   */\n      dup3\n        /* \"#utility.yul\":1473:1476   */\n      dup3\n        /* \"#utility.yul\":1466:1485   */\n      mstore\n        /* \"#utility.yul\":1518:1522   */\n      0x20\n        /* \"#utility.yul\":1513:1516   */\n      dup3\n        /* \"#utility.yul\":1509:1523   */\n      add\n        /* \"#utility.yul\":1494:1523   */\n      swap1\n      pop\n        /* \"#utility.yul\":1360:1529   */\n      swap3\n      swap2\n      pop\n      pop\n      jump\t// out\n        /* \"#utility.yul\":1535:1698   */\n    tag_34:\n        /* \"#utility.yul\":1675:1690   */\n      0x75696e74206f766572666c6f7700000000000000000000000000000000000000\n        /* \"#utility.yul\":1671:1672   */\n      0x00\n        /* \"#utility.yul\":1663:1669   */\n      dup3\n        /* \"#utility.yul\":1659:1673   */\n      add\n        /* \"#utility.yul\":1652:1691   */\n      mstore\n        /* \"#utility.yul\":1535:1698   */\n      pop\n      jump\t// out\n        /* \"#utility.yul\":1704:2070   */\n    tag_35:\n        /* \"#utility.yul\":1846:1849   */\n      0x00\n        /* \"#utility.yul\":1867:1934   */\n      tag_58\n        /* \"#utility.yul\":1931:1933   */\n      0x0d\n        /* \"#utility.yul\":1926:1929   */\n      dup4\n        /* \"#utility.yul\":1867:1934   */\n      tag_33\n      jump\t// in\n    tag_58:\n        /* \"#utility.yul\":1860:1934   */\n      swap2\n      pop\n        /* \"#utility.yul\":1943:2036   */\n      tag_59\n        /* \"#utility.yul\":2032:2035   */\n      dup3\n        /* \"#utility.yul\":1943:2036   */\n      tag_34\n      jump\t// in\n    tag_59:\n        /* \"#utility.yul\":2061:2063   */\n      0x20\n        /* \"#utility.yul\":2056:2059   */\n      dup3\n        /* \"#utility.yul\":2052:2064   */\n      add\n        /* \"#utility.yul\":2045:2064   */\n      swap1\n      pop\n        /* \"#utility.yul\":1704:2070   */\n      swap2\n      swap1\n      pop\n      jump\t// out\n        /* \"#utility.yul\":2076:2495   */\n    tag_19:\n        /* \"#utility.yul\":2242:2246   */\n      0x00\n        /* \"#utility.yul\":2280:2282   */\n      0x20\n        /* \"#utility.yul\":2269:2278   */\n      dup3\n        /* \"#utility.yul\":2265:2283   */\n      add\n        /* \"#utility.yul\":2257:2283   */\n      swap1\n      pop\n        /* \"#utility.yul\":2329:2338   */\n      dup2\n        /* \"#utility.yul\":2323:2327   */\n      dup2\n        /* \"#utility.yul\":2319:2339   */\n      sub\n        /* \"#utility.yul\":2315:2316   */\n      0x00\n        /* \"#utility.yul\":2304:2313   */\n      dup4\n        /* \"#utility.yul\":2300:2317   */\n      add\n        /* \"#utility.yul\":2293:2340   */\n      mstore\n        /* \"#utility.yul\":2357:2488   */\n      tag_61\n        /* \"#utility.yul\":2483:2487   */\n      dup2\n        /* \"#utility.yul\":2357:2488   */\n      tag_35\n      jump\t// in\n    tag_61:\n        /* \"#utility.yul\":2349:2488   */\n      swap1\n      pop\n        /* \"#utility.yul\":2076:2495   */\n      swap2\n      swap1\n      pop\n      jump\t// out\n        /* \"#utility.yul\":2501:2681   */\n    tag_36:\n        /* \"#utility.yul\":2549:2626   */\n      0x4e487b7100000000000000000000000000000000000000000000000000000000\n        /* \"#utility.yul\":2546:2547   */\n      0x00\n        /* \"#utility.yul\":2539:2627   */\n      mstore\n        /* \"#utility.yul\":2646:2650   */\n      0x11\n        /* \"#utility.yul\":2643:2644   */\n      0x04\n        /* \"#utility.yul\":2636:2651   */\n      mstore\n        /* \"#utility.yul\":2670:2674   */\n      0x24\n        /* \"#utility.yul\":2667:2668   */\n      0x00\n        /* \"#utility.yul\":2660:2675   */\n      revert\n        /* \"#utility.yul\":2687:2875   */\n    tag_25:\n        /* \"#utility.yul\":2725:2728   */\n      0x00\n        /* \"#utility.yul\":2744:2762   */\n      tag_64\n        /* \"#utility.yul\":2760:2761   */\n      dup3\n        /* \"#utility.yul\":2744:2762   */\n      tag_29\n      jump\t// in\n    tag_64:\n        /* \"#utility.yul\":2739:2762   */\n      swap2\n      pop\n        /* \"#utility.yul\":2776:2794   */\n      tag_65\n        /* \"#utility.yul\":2792:2793   */\n      dup4\n        /* \"#utility.yul\":2776:2794   */\n      tag_29\n      jump\t// in\n    tag_65:\n        /* \"#utility.yul\":2771:2794   */\n      swap3\n      pop\n        /* \"#utility.yul\":2817:2818   */\n      dup3\n        /* \"#utility.yul\":2814:2815   */\n      dup3\n        /* \"#utility.yul\":2810:2819   */\n      add\n        /* \"#utility.yul\":2803:2819   */\n      swap1\n      pop\n        /* \"#utility.yul\":2840:2844   */\n      0xff\n        /* \"#utility.yul\":2835:2838   */\n      dup2\n        /* \"#utility.yul\":2832:2845   */\n      gt\n        /* \"#utility.yul\":2829:2868   */\n      iszero\n      tag_66\n      jumpi\n        /* \"#utility.yul\":2848:2866   */\n      tag_67\n      tag_36\n      jump\t// in\n    tag_67:\n        /* \"#utility.yul\":2829:2868   */\n    tag_66:\n        /* \"#utility.yul\":2687:2875   */\n      swap3\n      swap2\n      pop\n      pop\n      jump\t// out\n\n    auxdata: 0xa26469706673582212204723aa7bcca056356d68223de0e0e2cf3090560caa6ccec719e7da2c51ef903f64736f6c63430008120033\n}\n",
				"bytecode": {
					"linkReferences": {},
					"object": "608060405234801561001057600080fd5b5060008060006101000a81548160ff021916908360ff16021790555061033b8061003b6000396000f3fe608060405234801561001057600080fd5b50600436106100415760003560e01c806324b8ba5f146100465780636d4ce63c14610062578063d09de08a14610080575b600080fd5b610060600480360381019061005b91906101cd565b61008a565b005b61006a6100ee565b6040516100779190610209565b60405180910390f35b610088610104565b005b60ff8160ff1611156100d1576040517f08c379a00000000000000000000000000000000000000000000000000000000081526004016100c890610281565b60405180910390fd5b806000806101000a81548160ff021916908360ff16021790555050565b60008060009054906101000a900460ff16905090565b60ff60008054906101000a900460ff1660ff1610610157576040517f08c379a000000000000000000000000000000000000000000000000000000000815260040161014e90610281565b60405180910390fd5b60016000808282829054906101000a900460ff1661017591906102d0565b92506101000a81548160ff021916908360ff160217905550565b600080fd5b600060ff82169050919050565b6101aa81610194565b81146101b557600080fd5b50565b6000813590506101c7816101a1565b92915050565b6000602082840312156101e3576101e261018f565b5b60006101f1848285016101b8565b91505092915050565b61020381610194565b82525050565b600060208201905061021e60008301846101fa565b92915050565b600082825260208201905092915050565b7f75696e74206f766572666c6f7700000000000000000000000000000000000000600082015250565b600061026b600d83610224565b915061027682610235565b602082019050919050565b6000602082019050818103600083015261029a8161025e565b9050919050565b7f4e487b7100000000000000000000000000000000000000000000000000000000600052601160045260246000fd5b60006102db82610194565b91506102e683610194565b9250828201905060ff8111156102ff576102fe6102a1565b5b9291505056fea26469706673582212204723aa7bcca056356d68223de0e0e2cf3090560caa6ccec719e7da2c51ef903f64736f6c63430008120033",
					"opcodes": "PUSH1 0x80 PUSH1 0x40 MSTORE CALLVALUE DUP1 ISZERO PUSH2 0x10 JUMPI PUSH1 0x0 DUP1 REVERT JUMPDEST POP PUSH1 0x0 DUP1 PUSH1 0x0 PUSH2 0x100 EXP DUP2 SLOAD DUP2 PUSH1 0xFF MUL NOT AND SWAP1 DUP4 PUSH1 0xFF AND MUL OR SWAP1 SSTORE POP PUSH2 0x33B DUP1 PUSH2 0x3B PUSH1 0x0 CODECOPY PUSH1 0x0 RETURN INVALID PUSH1 0x80 PUSH1 0x40 MSTORE CALLVALUE DUP1 ISZERO PUSH2 0x10 JUMPI PUSH1 0x0 DUP1 REVERT JUMPDEST POP PUSH1 0x4 CALLDATASIZE LT PUSH2 0x41 JUMPI PUSH1 0x0 CALLDATALOAD PUSH1 0xE0 SHR DUP1 PUSH4 0x24B8BA5F EQ PUSH2 0x46 JUMPI DUP1 PUSH4 0x6D4CE63C EQ PUSH2 0x62 JUMPI DUP1 PUSH4 0xD09DE08A EQ PUSH2 0x80 JUMPI JUMPDEST PUSH1 0x0 DUP1 REVERT JUMPDEST PUSH2 0x60 PUSH1 0x4 DUP1 CALLDATASIZE SUB DUP2 ADD SWAP1 PUSH2 0x5B SWAP2 SWAP1 PUSH2 0x1CD JUMP JUMPDEST PUSH2 0x8A JUMP JUMPDEST STOP JUMPDEST PUSH2 0x6A PUSH2 0xEE JUMP JUMPDEST PUSH1 0x40 MLOAD PUSH2 0x77 SWAP2 SWAP1 PUSH2 0x209 JUMP JUMPDEST PUSH1 0x40 MLOAD DUP1 SWAP2 SUB SWAP1 RETURN JUMPDEST PUSH2 0x88 PUSH2 0x104 JUMP JUMPDEST STOP JUMPDEST PUSH1 0xFF DUP2 PUSH1 0xFF AND GT ISZERO PUSH2 0xD1 JUMPI PUSH1 0x40 MLOAD PUSH32 0x8C379A000000000000000000000000000000000000000000000000000000000 DUP2 MSTORE PUSH1 0x4 ADD PUSH2 0xC8 SWAP1 PUSH2 0x281 JUMP JUMPDEST PUSH1 0x40 MLOAD DUP1 SWAP2 SUB SWAP1 REVERT JUMPDEST DUP1 PUSH1 0x0 DUP1 PUSH2 0x100 EXP DUP2 SLOAD DUP2 PUSH1 0xFF MUL NOT AND SWAP1 DUP4 PUSH1 0xFF AND MUL OR SWAP1 SSTORE POP POP JUMP JUMPDEST PUSH1 0x0 DUP1 PUSH1 0x0 SWAP1 SLOAD SWAP1 PUSH2 0x100 EXP SWAP1 DIV PUSH1 0xFF AND SWAP1 POP SWAP1 JUMP JUMPDEST PUSH1 0xFF PUSH1 0x0 DUP1 SLOAD SWAP1 PUSH2 0x100 EXP SWAP1 DIV PUSH1 0xFF AND PUSH1 0xFF AND LT PUSH2 0x157 JUMPI PUSH1 0x40 MLOAD PUSH32 0x8C379A000000000000000000000000000000000000000000000000000000000 DUP2 MSTORE PUSH1 0x4 ADD PUSH2 0x14E SWAP1 PUSH2 0x281 JUMP JUMPDEST PUSH1 0x40 MLOAD DUP1 SWAP2 SUB SWAP1 REVERT JUMPDEST PUSH1 0x1 PUSH1 0x0 DUP1 DUP3 DUP3 DUP3 SWAP1 SLOAD SWAP1 PUSH2 0x100 EXP SWAP1 DIV PUSH1 0xFF AND PUSH2 0x175 SWAP2 SWAP1 PUSH2 0x2D0 JUMP JUMPDEST SWAP3 POP PUSH2 0x100 EXP DUP2 SLOAD DUP2 PUSH1 0xFF MUL NOT AND SWAP1 DUP4 PUSH1 0xFF AND MUL OR SWAP1 SSTORE POP JUMP JUMPDEST PUSH1 0x0 DUP1 REVERT JUMPDEST PUSH1 0x0 PUSH1 0xFF DUP3 AND SWAP1 POP SWAP2 SWAP1 POP JUMP JUMPDEST PUSH2 0x1AA DUP2 PUSH2 0x194 JUMP JUMPDEST DUP2 EQ PUSH2 0x1B5 JUMPI PUSH1 0x0 DUP1 REVERT JUMPDEST POP JUMP JUMPDEST PUSH1 0x0 DUP2 CALLDATALOAD SWAP1 POP PUSH2 0x1C7 DUP2 PUSH2 0x1A1 JUMP JUMPDEST SWAP3 SWAP2 POP POP JUMP JUMPDEST PUSH1 0x0 PUSH1 0x20 DUP3 DUP5 SUB SLT ISZERO PUSH2 0x1E3 JUMPI PUSH2 0x1E2 PUSH2 0x18F JUMP JUMPDEST JUMPDEST PUSH1 0x0 PUSH2 0x1F1 DUP5 DUP3 DUP6 ADD PUSH2 0x1B8 JUMP JUMPDEST SWAP2 POP POP SWAP3 SWAP2 POP POP JUMP JUMPDEST PUSH2 0x203 DUP2 PUSH2 0x194 JUMP JUMPDEST DUP3 MSTORE POP POP JUMP JUMPDEST PUSH1 0x0 PUSH1 0x20 DUP3 ADD SWAP1 POP PUSH2 0x21E PUSH1 0x0 DUP4 ADD DUP5 PUSH2 0x1FA JUMP JUMPDEST SWAP3 SWAP2 POP POP JUMP JUMPDEST PUSH1 0x0 DUP3 DUP3 MSTORE PUSH1 0x20 DUP3 ADD SWAP1 POP SWAP3 SWAP2 POP POP JUMP JUMPDEST PUSH32 0x75696E74206F766572666C6F7700000000000000000000000000000000000000 PUSH1 0x0 DUP3 ADD MSTORE POP JUMP JUMPDEST PUSH1 0x0 PUSH2 0x26B PUSH1 0xD DUP4 PUSH2 0x224 JUMP JUMPDEST SWAP2 POP PUSH2 0x276 DUP3 PUSH2 0x235 JUMP JUMPDEST PUSH1 0x20 DUP3 ADD SWAP1 POP SWAP2 SWAP1 POP JUMP JUMPDEST PUSH1 0x0 PUSH1 0x20 DUP3 ADD SWAP1 POP DUP2 DUP2 SUB PUSH1 0x0 DUP4 ADD MSTORE PUSH2 0x29A DUP2 PUSH2 0x25E JUMP JUMPDEST SWAP1 POP SWAP2 SWAP1 POP JUMP JUMPDEST PUSH32 0x4E487B7100000000000000000000000000000000000000000000000000000000 PUSH1 0x0 MSTORE PUSH1 0x11 PUSH1 0x4 MSTORE PUSH1 0x24 PUSH1 0x0 REVERT JUMPDEST PUSH1 0x0 PUSH2 0x2DB DUP3 PUSH2 0x194 JUMP JUMPDEST SWAP2 POP PUSH2 0x2E6 DUP4 PUSH2 0x194 JUMP JUMPDEST SWAP3 POP DUP3 DUP3 ADD SWAP1 POP PUSH1 0xFF DUP2 GT ISZERO PUSH2 0x2FF JUMPI PUSH2 0x2FE PUSH2 0x2A1 JUMP JUMPDEST JUMPDEST SWAP3 SWAP2 POP POP JUMP INVALID LOG2 PUSH5 0x6970667358 0x22 SLT KECCAK256 SELFBALANCE 0x23 0xAA PUSH28 0xCCA056356D68223DE0E0E2CF3090560CAA6CCEC719E7DA2C51EF903F PUSH5 0x736F6C6343 STOP ADDMOD SLT STOP CALLER "
				},
				"gasEstimates": {
					"creation": {
						"codeDepositCost": "165400",
						"executionCost": "24475",
						"totalCost": "189875"
					},
					"external": {
						"get()": "2479",
						"increment()": "infinite",
						"set(uint8)": "24689"
					}
				},
				"methodIdentifiers": {
					"get()": "6d4ce63c",
					"increment()": "d09de08a",
					"set(uint8)": "24b8ba5f"
				}
			},
			"storageLayout": {
				"storage": [
					{
						"astId": 3,
						"contract": "contracts/Storage.sol:Storage",
						"label": "number",
						"offset": 0,
						"slot": "0",
						"type": "t_uint8"
					}
				],
				"types": {
					"t_uint8": {
						"encoding": "inplace",
						"label": "uint8",
						"numberOfBytes": "1"
					}
				}
			},
			"userdoc": {
				"kind": "user",
				"methods": {},
				"version": 1
			}
		}
	}
}